{
  "contractName": "CertRegistry",
  "abi": [
    {
      "inputs": [
        {
          "internalType": "address",
          "name": "admin",
          "type": "address"
        }
      ],
      "stateMutability": "nonpayable",
      "type": "constructor"
    },
    {
      "inputs": [],
      "name": "AccessControlBadConfirmation",
      "type": "error"
    },
    {
      "inputs": [
        {
          "internalType": "address",
          "name": "account",
          "type": "address"
        },
        {
          "internalType": "bytes32",
          "name": "neededRole",
          "type": "bytes32"
        }
      ],
      "name": "AccessControlUnauthorizedAccount",
      "type": "error"
    },
    {
      "anonymous": false,
      "inputs": [
        {
          "indexed": true,
          "internalType": "bytes32",
          "name": "certId",
          "type": "bytes32"
        },
        {
          "indexed": true,
          "internalType": "address",
          "name": "issuer",
          "type": "address"
        },
        {
          "indexed": false,
          "internalType": "string",
          "name": "cid",
          "type": "string"
        },
        {
          "indexed": false,
          "internalType": "bytes32",
          "name": "contentHash",
          "type": "bytes32"
        }
      ],
      "name": "Issued",
      "type": "event"
    },
    {
      "anonymous": false,
      "inputs": [
        {
          "indexed": true,
          "internalType": "bytes32",
          "name": "certId",
          "type": "bytes32"
        },
        {
          "indexed": true,
          "internalType": "address",
          "name": "issuer",
          "type": "address"
        },
        {
          "indexed": false,
          "internalType": "string",
          "name": "reason",
          "type": "string"
        }
      ],
      "name": "Revoked",
      "type": "event"
    },
    {
      "anonymous": false,
      "inputs": [
        {
          "indexed": true,
          "internalType": "bytes32",
          "name": "role",
          "type": "bytes32"
        },
        {
          "indexed": true,
          "internalType": "bytes32",
          "name": "previousAdminRole",
          "type": "bytes32"
        },
        {
          "indexed": true,
          "internalType": "bytes32",
          "name": "newAdminRole",
          "type": "bytes32"
        }
      ],
      "name": "RoleAdminChanged",
      "type": "event"
    },
    {
      "anonymous": false,
      "inputs": [
        {
          "indexed": true,
          "internalType": "bytes32",
          "name": "role",
          "type": "bytes32"
        },
        {
          "indexed": true,
          "internalType": "address",
          "name": "account",
          "type": "address"
        },
        {
          "indexed": true,
          "internalType": "address",
          "name": "sender",
          "type": "address"
        }
      ],
      "name": "RoleGranted",
      "type": "event"
    },
    {
      "anonymous": false,
      "inputs": [
        {
          "indexed": true,
          "internalType": "bytes32",
          "name": "role",
          "type": "bytes32"
        },
        {
          "indexed": true,
          "internalType": "address",
          "name": "account",
          "type": "address"
        },
        {
          "indexed": true,
          "internalType": "address",
          "name": "sender",
          "type": "address"
        }
      ],
      "name": "RoleRevoked",
      "type": "event"
    },
    {
      "inputs": [],
      "name": "DEFAULT_ADMIN_ROLE",
      "outputs": [
        {
          "internalType": "bytes32",
          "name": "",
          "type": "bytes32"
        }
      ],
      "stateMutability": "view",
      "type": "function",
      "constant": true
    },
    {
      "inputs": [],
      "name": "ISSUER_ROLE",
      "outputs": [
        {
          "internalType": "bytes32",
          "name": "",
          "type": "bytes32"
        }
      ],
      "stateMutability": "view",
      "type": "function",
      "constant": true
    },
    {
      "inputs": [
        {
          "internalType": "bytes32",
          "name": "role",
          "type": "bytes32"
        }
      ],
      "name": "getRoleAdmin",
      "outputs": [
        {
          "internalType": "bytes32",
          "name": "",
          "type": "bytes32"
        }
      ],
      "stateMutability": "view",
      "type": "function",
      "constant": true
    },
    {
      "inputs": [
        {
          "internalType": "bytes32",
          "name": "role",
          "type": "bytes32"
        },
        {
          "internalType": "address",
          "name": "account",
          "type": "address"
        }
      ],
      "name": "grantRole",
      "outputs": [],
      "stateMutability": "nonpayable",
      "type": "function"
    },
    {
      "inputs": [
        {
          "internalType": "bytes32",
          "name": "role",
          "type": "bytes32"
        },
        {
          "internalType": "address",
          "name": "account",
          "type": "address"
        }
      ],
      "name": "hasRole",
      "outputs": [
        {
          "internalType": "bool",
          "name": "",
          "type": "bool"
        }
      ],
      "stateMutability": "view",
      "type": "function",
      "constant": true
    },
    {
      "inputs": [
        {
          "internalType": "bytes32",
          "name": "role",
          "type": "bytes32"
        },
        {
          "internalType": "address",
          "name": "callerConfirmation",
          "type": "address"
        }
      ],
      "name": "renounceRole",
      "outputs": [],
      "stateMutability": "nonpayable",
      "type": "function"
    },
    {
      "inputs": [
        {
          "internalType": "bytes32",
          "name": "role",
          "type": "bytes32"
        },
        {
          "internalType": "address",
          "name": "account",
          "type": "address"
        }
      ],
      "name": "revokeRole",
      "outputs": [],
      "stateMutability": "nonpayable",
      "type": "function"
    },
    {
      "inputs": [
        {
          "internalType": "bytes4",
          "name": "interfaceId",
          "type": "bytes4"
        }
      ],
      "name": "supportsInterface",
      "outputs": [
        {
          "internalType": "bool",
          "name": "",
          "type": "bool"
        }
      ],
      "stateMutability": "view",
      "type": "function",
      "constant": true
    },
    {
      "inputs": [
        {
          "internalType": "bytes32",
          "name": "certId",
          "type": "bytes32"
        },
        {
          "internalType": "string",
          "name": "cid",
          "type": "string"
        },
        {
          "internalType": "bytes32",
          "name": "contentHash",
          "type": "bytes32"
        }
      ],
      "name": "issue",
      "outputs": [],
      "stateMutability": "nonpayable",
      "type": "function"
    },
    {
      "inputs": [
        {
          "internalType": "bytes32",
          "name": "certId",
          "type": "bytes32"
        },
        {
          "internalType": "string",
          "name": "reason",
          "type": "string"
        }
      ],
      "name": "revoke",
      "outputs": [],
      "stateMutability": "nonpayable",
      "type": "function"
    },
    {
      "inputs": [
        {
          "internalType": "bytes32",
          "name": "certId",
          "type": "bytes32"
        }
      ],
      "name": "get",
      "outputs": [
        {
          "components": [
            {
              "internalType": "address",
              "name": "issuer",
              "type": "address"
            },
            {
              "internalType": "string",
              "name": "cid",
              "type": "string"
            },
            {
              "internalType": "bytes32",
              "name": "contentHash",
              "type": "bytes32"
            },
            {
              "internalType": "uint64",
              "name": "issuedAt",
              "type": "uint64"
            },
            {
              "internalType": "uint64",
              "name": "revokedAt",
              "type": "uint64"
            },
            {
              "internalType": "enum CertRegistry.Status",
              "name": "status",
              "type": "uint8"
            }
          ],
          "internalType": "struct CertRegistry.Cert",
          "name": "",
          "type": "tuple"
        }
      ],
      "stateMutability": "view",
      "type": "function",
      "constant": true
    },
    {
      "inputs": [
        {
          "internalType": "bytes32",
          "name": "certId",
          "type": "bytes32"
        }
      ],
      "name": "statusOf",
      "outputs": [
        {
          "internalType": "enum CertRegistry.Status",
          "name": "",
          "type": "uint8"
        }
      ],
      "stateMutability": "view",
      "type": "function",
      "constant": true
    },
    {
      "inputs": [
        {
          "internalType": "bytes32",
          "name": "certId",
          "type": "bytes32"
        }
      ],
      "name": "isActive",
      "outputs": [
        {
          "internalType": "bool",
          "name": "",
          "type": "bool"
        }
      ],
      "stateMutability": "view",
      "type": "function",
      "constant": true
    }
  ],
  "bytecode": "0x608060405234801562000010575f80fd5b5060405162001b7c38038062001b7c83398181016040528101906200003691906200024f565b6200004a5f801b826200008560201b60201c565b506200007d7f114e74f6ea3bd819998f78687bfcb11b140da08e9b7d222fa9c1f1ba1f2aa122826200008560201b60201c565b50506200027f565b5f6200009883836200018060201b60201c565b620001765760015f808581526020019081526020015f205f015f8473ffffffffffffffffffffffffffffffffffffffff1673ffffffffffffffffffffffffffffffffffffffff1681526020019081526020015f205f6101000a81548160ff02191690831515021790555062000112620001e360201b60201c565b73ffffffffffffffffffffffffffffffffffffffff168273ffffffffffffffffffffffffffffffffffffffff16847f2f8788117e7eff1d82e926ec794901d17c78024a50270940304540a733656f0d60405160405180910390a4600190506200017a565b5f90505b92915050565b5f805f8481526020019081526020015f205f015f8373ffffffffffffffffffffffffffffffffffffffff1673ffffffffffffffffffffffffffffffffffffffff1681526020019081526020015f205f9054906101000a900460ff16905092915050565b5f33905090565b5f80fd5b5f73ffffffffffffffffffffffffffffffffffffffff82169050919050565b5f6200021982620001ee565b9050919050565b6200022b816200020d565b811462000236575f80fd5b50565b5f81519050620002498162000220565b92915050565b5f60208284031215620002675762000266620001ea565b5b5f620002768482850162000239565b91505092915050565b6118ef806200028d5f395ff3fe608060405234801561000f575f80fd5b50600436106100cd575f3560e01c806382aefa241161008a578063a217fddf11610064578063a217fddf14610233578063c7df14e214610251578063d547741f14610281578063e089c3891461029d576100cd565b806382aefa24146101b55780638eaa6ac0146101d357806391d1485414610203576100cd565b806301ffc9a7146100d157806308ccbc9414610101578063248a9ca31461011d5780632f2ff15d1461014d57806336568abe146101695780635c36901c14610185575b5f80fd5b6100eb60048036038101906100e69190610efa565b6102b9565b6040516100f89190610f3f565b60405180910390f35b61011b60048036038101906101169190610fec565b610332565b005b61013760048036038101906101329190611049565b61052f565b6040516101449190611083565b60405180910390f35b610167600480360381019061016291906110f6565b61054b565b005b610183600480360381019061017e91906110f6565b61056d565b005b61019f600480360381019061019a9190611049565b6105e8565b6040516101ac9190610f3f565b60405180910390f35b6101bd610639565b6040516101ca9190611083565b60405180910390f35b6101ed60048036038101906101e89190611049565b61065d565b6040516101fa91906112f7565b60405180910390f35b61021d600480360381019061021891906110f6565b610814565b60405161022a9190610f3f565b60405180910390f35b61023b610877565b6040516102489190611083565b60405180910390f35b61026b60048036038101906102669190611049565b61087d565b6040516102789190611326565b60405180910390f35b61029b600480360381019061029691906110f6565b6108a7565b005b6102b760048036038101906102b2919061133f565b6108c9565b005b5f7f7965db0b000000000000000000000000000000000000000000000000000000007bffffffffffffffffffffffffffffffffffffffffffffffffffffffff1916827bffffffffffffffffffffffffffffffffffffffffffffffffffffffff1916148061032b575061032a82610b86565b5b9050919050565b5f60015f8581526020019081526020015f2090506001600281111561035a576103596111fe565b5b8160030160109054906101000a900460ff16600281111561037e5761037d6111fe565b5b146103be576040517f08c379a00000000000000000000000000000000000000000000000000000000081526004016103b59061140a565b60405180910390fd5b6103e87f114e74f6ea3bd819998f78687bfcb11b140da08e9b7d222fa9c1f1ba1f2aa12233610814565b80156104415750805f015f9054906101000a900473ffffffffffffffffffffffffffffffffffffffff1673ffffffffffffffffffffffffffffffffffffffff163373ffffffffffffffffffffffffffffffffffffffff16145b610480576040517f08c379a000000000000000000000000000000000000000000000000000000000815260040161047790611472565b60405180910390fd5b60028160030160106101000a81548160ff021916908360028111156104a8576104a76111fe565b5b0217905550428160030160086101000a81548167ffffffffffffffff021916908367ffffffffffffffff1602179055503373ffffffffffffffffffffffffffffffffffffffff16847fde646f76a4e8f5ef16d9722c5230935579e89016b88ee7262adf80c39058851b85856040516105219291906114ca565b60405180910390a350505050565b5f805f8381526020019081526020015f20600101549050919050565b6105548261052f565b61055d81610bef565b6105678383610c03565b50505050565b610575610cec565b73ffffffffffffffffffffffffffffffffffffffff168173ffffffffffffffffffffffffffffffffffffffff16146105d9576040517f6697b23200000000000000000000000000000000000000000000000000000000815260040160405180910390fd5b6105e38282610cf3565b505050565b5f600160028111156105fd576105fc6111fe565b5b60015f8481526020019081526020015f2060030160109054906101000a900460ff166002811115610631576106306111fe565b5b149050919050565b7f114e74f6ea3bd819998f78687bfcb11b140da08e9b7d222fa9c1f1ba1f2aa12281565b610665610e2d565b60015f8381526020019081526020015f206040518060c00160405290815f82015f9054906101000a900473ffffffffffffffffffffffffffffffffffffffff1673ffffffffffffffffffffffffffffffffffffffff1673ffffffffffffffffffffffffffffffffffffffff1681526020016001820180546106e590611519565b80601f016020809104026020016040519081016040528092919081815260200182805461071190611519565b801561075c5780601f106107335761010080835404028352916020019161075c565b820191905f5260205f20905b81548152906001019060200180831161073f57829003601f168201915b5050505050815260200160028201548152602001600382015f9054906101000a900467ffffffffffffffff1667ffffffffffffffff1667ffffffffffffffff1681526020016003820160089054906101000a900467ffffffffffffffff1667ffffffffffffffff1667ffffffffffffffff1681526020016003820160109054906101000a900460ff1660028111156107f7576107f66111fe565b5b6002811115610809576108086111fe565b5b815250509050919050565b5f805f8481526020019081526020015f205f015f8373ffffffffffffffffffffffffffffffffffffffff1673ffffffffffffffffffffffffffffffffffffffff1681526020019081526020015f205f9054906101000a900460ff16905092915050565b5f801b81565b5f60015f8381526020019081526020015f2060030160109054906101000a900460ff169050919050565b6108b08261052f565b6108b981610bef565b6108c38383610cf3565b50505050565b7f114e74f6ea3bd819998f78687bfcb11b140da08e9b7d222fa9c1f1ba1f2aa1226108f381610bef565b5f6002811115610906576109056111fe565b5b60015f8781526020019081526020015f2060030160109054906101000a900460ff16600281111561093a576109396111fe565b5b1461097a576040517f08c379a000000000000000000000000000000000000000000000000000000000815260040161097190611593565b60405180910390fd5b6040518060c001604052803373ffffffffffffffffffffffffffffffffffffffff16815260200185858080601f0160208091040260200160405190810160405280939291908181526020018383808284375f81840152601f19601f8201169050808301925050505050505081526020018381526020014267ffffffffffffffff1681526020015f67ffffffffffffffff16815260200160016002811115610a2457610a236111fe565b5b81525060015f8781526020019081526020015f205f820151815f015f6101000a81548173ffffffffffffffffffffffffffffffffffffffff021916908373ffffffffffffffffffffffffffffffffffffffff1602179055506020820151816001019081610a919190611784565b50604082015181600201556060820151816003015f6101000a81548167ffffffffffffffff021916908367ffffffffffffffff16021790555060808201518160030160086101000a81548167ffffffffffffffff021916908367ffffffffffffffff16021790555060a08201518160030160106101000a81548160ff02191690836002811115610b2457610b236111fe565b5b02179055509050503373ffffffffffffffffffffffffffffffffffffffff16857f122a5cdfd9fcae06e8098cce2210b58ac408841d01c5482af78b47ceffffd905868686604051610b7793929190611853565b60405180910390a35050505050565b5f7f01ffc9a7000000000000000000000000000000000000000000000000000000007bffffffffffffffffffffffffffffffffffffffffffffffffffffffff1916827bffffffffffffffffffffffffffffffffffffffffffffffffffffffff1916149050919050565b610c0081610bfb610cec565b610ddc565b50565b5f610c0e8383610814565b610ce25760015f808581526020019081526020015f205f015f8473ffffffffffffffffffffffffffffffffffffffff1673ffffffffffffffffffffffffffffffffffffffff1681526020019081526020015f205f6101000a81548160ff021916908315150217905550610c7f610cec565b73ffffffffffffffffffffffffffffffffffffffff168273ffffffffffffffffffffffffffffffffffffffff16847f2f8788117e7eff1d82e926ec794901d17c78024a50270940304540a733656f0d60405160405180910390a460019050610ce6565b5f90505b92915050565b5f33905090565b5f610cfe8383610814565b15610dd2575f805f8581526020019081526020015f205f015f8473ffffffffffffffffffffffffffffffffffffffff1673ffffffffffffffffffffffffffffffffffffffff1681526020019081526020015f205f6101000a81548160ff021916908315150217905550610d6f610cec565b73ffffffffffffffffffffffffffffffffffffffff168273ffffffffffffffffffffffffffffffffffffffff16847ff6391f5c32d9c69d2a47ea670b442974b53935d1edc7fd64eb21e047a839171b60405160405180910390a460019050610dd6565b5f90505b92915050565b610de68282610814565b610e295780826040517fe2517d3f000000000000000000000000000000000000000000000000000000008152600401610e20929190611892565b60405180910390fd5b5050565b6040518060c001604052805f73ffffffffffffffffffffffffffffffffffffffff168152602001606081526020015f80191681526020015f67ffffffffffffffff1681526020015f67ffffffffffffffff1681526020015f6002811115610e9757610e966111fe565b5b81525090565b5f80fd5b5f80fd5b5f7fffffffff0000000000000000000000000000000000000000000000000000000082169050919050565b610ed981610ea5565b8114610ee3575f80fd5b50565b5f81359050610ef481610ed0565b92915050565b5f60208284031215610f0f57610f0e610e9d565b5b5f610f1c84828501610ee6565b91505092915050565b5f8115159050919050565b610f3981610f25565b82525050565b5f602082019050610f525f830184610f30565b92915050565b5f819050919050565b610f6a81610f58565b8114610f74575f80fd5b50565b5f81359050610f8581610f61565b92915050565b5f80fd5b5f80fd5b5f80fd5b5f8083601f840112610fac57610fab610f8b565b5b8235905067ffffffffffffffff811115610fc957610fc8610f8f565b5b602083019150836001820283011115610fe557610fe4610f93565b5b9250929050565b5f805f6040848603121561100357611002610e9d565b5b5f61101086828701610f77565b935050602084013567ffffffffffffffff81111561103157611030610ea1565b5b61103d86828701610f97565b92509250509250925092565b5f6020828403121561105e5761105d610e9d565b5b5f61106b84828501610f77565b91505092915050565b61107d81610f58565b82525050565b5f6020820190506110965f830184611074565b92915050565b5f73ffffffffffffffffffffffffffffffffffffffff82169050919050565b5f6110c58261109c565b9050919050565b6110d5816110bb565b81146110df575f80fd5b50565b5f813590506110f0816110cc565b92915050565b5f806040838503121561110c5761110b610e9d565b5b5f61111985828601610f77565b925050602061112a858286016110e2565b9150509250929050565b61113d816110bb565b82525050565b5f81519050919050565b5f82825260208201905092915050565b5f5b8381101561117a57808201518184015260208101905061115f565b5f8484015250505050565b5f601f19601f8301169050919050565b5f61119f82611143565b6111a9818561114d565b93506111b981856020860161115d565b6111c281611185565b840191505092915050565b6111d681610f58565b82525050565b5f67ffffffffffffffff82169050919050565b6111f8816111dc565b82525050565b7f4e487b71000000000000000000000000000000000000000000000000000000005f52602160045260245ffd5b6003811061123c5761123b6111fe565b5b50565b5f81905061124c8261122b565b919050565b5f61125b8261123f565b9050919050565b61126b81611251565b82525050565b5f60c083015f8301516112865f860182611134565b506020830151848203602086015261129e8282611195565b91505060408301516112b360408601826111cd565b5060608301516112c660608601826111ef565b5060808301516112d960808601826111ef565b5060a08301516112ec60a0860182611262565b508091505092915050565b5f6020820190508181035f83015261130f8184611271565b905092915050565b61132081611251565b82525050565b5f6020820190506113395f830184611317565b92915050565b5f805f806060858703121561135757611356610e9d565b5b5f61136487828801610f77565b945050602085013567ffffffffffffffff81111561138557611384610ea1565b5b61139187828801610f97565b935093505060406113a487828801610f77565b91505092959194509250565b5f82825260208201905092915050565b7f6e6f7420616374697665000000000000000000000000000000000000000000005f82015250565b5f6113f4600a836113b0565b91506113ff826113c0565b602082019050919050565b5f6020820190508181035f830152611421816113e8565b9050919050565b7f6f6e6c79206973737565720000000000000000000000000000000000000000005f82015250565b5f61145c600b836113b0565b915061146782611428565b602082019050919050565b5f6020820190508181035f83015261148981611450565b9050919050565b828183375f83830152505050565b5f6114a983856113b0565b93506114b6838584611490565b6114bf83611185565b840190509392505050565b5f6020820190508181035f8301526114e381848661149e565b90509392505050565b7f4e487b71000000000000000000000000000000000000000000000000000000005f52602260045260245ffd5b5f600282049050600182168061153057607f821691505b602082108103611543576115426114ec565b5b50919050565b7f65786973747300000000000000000000000000000000000000000000000000005f82015250565b5f61157d6006836113b0565b915061158882611549565b602082019050919050565b5f6020820190508181035f8301526115aa81611571565b9050919050565b7f4e487b71000000000000000000000000000000000000000000000000000000005f52604160045260245ffd5b5f819050815f5260205f209050919050565b5f6020601f8301049050919050565b5f82821b905092915050565b5f6008830261163a7fffffffffffffffffffffffffffffffffffffffffffffffffffffffffffffffff826115ff565b61164486836115ff565b95508019841693508086168417925050509392505050565b5f819050919050565b5f819050919050565b5f61168861168361167e8461165c565b611665565b61165c565b9050919050565b5f819050919050565b6116a18361166e565b6116b56116ad8261168f565b84845461160b565b825550505050565b5f90565b6116c96116bd565b6116d4818484611698565b505050565b5b818110156116f7576116ec5f826116c1565b6001810190506116da565b5050565b601f82111561173c5761170d816115de565b611716846115f0565b81016020851015611725578190505b611739611731856115f0565b8301826116d9565b50505b505050565b5f82821c905092915050565b5f61175c5f1984600802611741565b1980831691505092915050565b5f611774838361174d565b9150826002028217905092915050565b61178d82611143565b67ffffffffffffffff8111156117a6576117a56115b1565b5b6117b08254611519565b6117bb8282856116fb565b5f60209050601f8311600181146117ec575f84156117da578287015190505b6117e48582611769565b86555061184b565b601f1984166117fa866115de565b5f5b82811015611821578489015182556001820191506020850194506020810190506117fc565b8683101561183e578489015161183a601f89168261174d565b8355505b6001600288020188555050505b505050505050565b5f6040820190508181035f83015261186c81858761149e565b905061187b6020830184611074565b949350505050565b61188c816110bb565b82525050565b5f6040820190506118a55f830185611883565b6118b26020830184611074565b939250505056fea264697066735822122004c04be8674319c5cb0fb61ae0c1e858404e3934b1465db2d04663dff8bb32fd64736f6c63430008150033",
  "immutableReferences": {},
  "source": "// SPDX-License-Identifier: MIT\r\npragma solidity ^0.8.21;\r\n\r\nimport \"@openzeppelin/contracts/access/AccessControl.sol\";\r\n\r\ncontract CertRegistry is AccessControl {\r\n    bytes32 public constant ISSUER_ROLE = keccak256(\"ISSUER_ROLE\");\r\n    enum Status { None, Active, Revoked }\r\n\r\n    struct Cert {\r\n        address issuer;\r\n        string cid;\r\n        bytes32 contentHash;\r\n        uint64 issuedAt;\r\n        uint64 revokedAt;\r\n        Status status;\r\n    }\r\n\r\n    mapping(bytes32 => Cert) private certs;\r\n\r\n    event Issued(bytes32 indexed certId, address indexed issuer, string cid, bytes32 contentHash);\r\n    event Revoked(bytes32 indexed certId, address indexed issuer, string reason);\r\n\r\n    constructor(address admin) {\r\n        _grantRole(DEFAULT_ADMIN_ROLE, admin);\r\n        _grantRole(ISSUER_ROLE, admin);\r\n    }\r\n\r\n    function issue(bytes32 certId, string calldata cid, bytes32 contentHash) external onlyRole(ISSUER_ROLE) {\r\n        require(certs[certId].status == Status.None, \"exists\");\r\n        certs[certId] = Cert(msg.sender, cid, contentHash, uint64(block.timestamp), 0, Status.Active);\r\n        emit Issued(certId, msg.sender, cid, contentHash);\r\n    }\r\n\r\n    function revoke(bytes32 certId, string calldata reason) external {\r\n        Cert storage c = certs[certId];\r\n        require(c.status == Status.Active, \"not active\");\r\n        require(hasRole(ISSUER_ROLE, msg.sender) && msg.sender == c.issuer, \"only issuer\");\r\n        c.status = Status.Revoked;\r\n        c.revokedAt = uint64(block.timestamp);\r\n        emit Revoked(certId, msg.sender, reason);\r\n    }\r\n\r\n    function get(bytes32 certId) external view returns (Cert memory) {\r\n        return certs[certId];\r\n    }\r\n\r\n    function statusOf(bytes32 certId) external view returns (Status) {\r\n        return certs[certId].status;\r\n    }\r\n\r\n    function isActive(bytes32 certId) external view returns (bool) {\r\n    return certs[certId].status == Status.Active;\r\n    }\r\n\r\n}\r\n",
  "sourcePath": "D:\\Workspaces\\Workspace-VSCode\\5413-Blockchain\\acv-dapp\\contracts\\CertRegistry.sol",
  "compiler": {
    "name": "solc",
    "version": "0.8.21+commit.d9974bed.Emscripten.clang"
  },
  "schemaVersion": "3.4.16",
  "updatedAt": "2025-08-15T18:38:28.344Z",
  "networkType": "ethereum",
  "devdoc": {
    "errors": {
      "AccessControlBadConfirmation()": [
        {
          "details": "The caller of a function is not the expected one. NOTE: Don't confuse with {AccessControlUnauthorizedAccount}."
        }
      ],
      "AccessControlUnauthorizedAccount(address,bytes32)": [
        {
          "details": "The `account` is missing a role."
        }
      ]
    },
    "events": {
      "RoleAdminChanged(bytes32,bytes32,bytes32)": {
        "details": "Emitted when `newAdminRole` is set as ``role``'s admin role, replacing `previousAdminRole` `DEFAULT_ADMIN_ROLE` is the starting admin for all roles, despite {RoleAdminChanged} not being emitted to signal this."
      },
      "RoleGranted(bytes32,address,address)": {
        "details": "Emitted when `account` is granted `role`. `sender` is the account that originated the contract call. This account bears the admin role (for the granted role). Expected in cases where the role was granted using the internal {AccessControl-_grantRole}."
      },
      "RoleRevoked(bytes32,address,address)": {
        "details": "Emitted when `account` is revoked `role`. `sender` is the account that originated the contract call:   - if using `revokeRole`, it is the admin role bearer   - if using `renounceRole`, it is the role bearer (i.e. `account`)"
      }
    },
    "kind": "dev",
    "methods": {
      "getRoleAdmin(bytes32)": {
        "details": "Returns the admin role that controls `role`. See {grantRole} and {revokeRole}. To change a role's admin, use {_setRoleAdmin}."
      },
      "grantRole(bytes32,address)": {
        "details": "Grants `role` to `account`. If `account` had not been already granted `role`, emits a {RoleGranted} event. Requirements: - the caller must have ``role``'s admin role. May emit a {RoleGranted} event."
      },
      "hasRole(bytes32,address)": {
        "details": "Returns `true` if `account` has been granted `role`."
      },
      "renounceRole(bytes32,address)": {
        "details": "Revokes `role` from the calling account. Roles are often managed via {grantRole} and {revokeRole}: this function's purpose is to provide a mechanism for accounts to lose their privileges if they are compromised (such as when a trusted device is misplaced). If the calling account had been revoked `role`, emits a {RoleRevoked} event. Requirements: - the caller must be `callerConfirmation`. May emit a {RoleRevoked} event."
      },
      "revokeRole(bytes32,address)": {
        "details": "Revokes `role` from `account`. If `account` had been granted `role`, emits a {RoleRevoked} event. Requirements: - the caller must have ``role``'s admin role. May emit a {RoleRevoked} event."
      },
      "supportsInterface(bytes4)": {
        "details": "Returns true if this contract implements the interface defined by `interfaceId`. See the corresponding https://eips.ethereum.org/EIPS/eip-165#how-interfaces-are-identified[ERC section] to learn more about how these ids are created. This function call must use less than 30 000 gas."
      }
    },
    "version": 1
  },
  "userdoc": {
    "kind": "user",
    "methods": {},
    "version": 1
  }
}